:020000040800F2
:10000000A814002041010008F91400084913000851
:1000100000000000000000000000000000000000E0
:100020000000000000000000000000004115000872
:100030000000000000000000FF0000087D1500081F
:10004000530100080000000053010008530100089C
:100050005301000853010008530100085301000830
:10006000000000005301000853010008530100087C
:100070005301000859160008530100080000000051
:100080006916000853010008000000005301000831
:1000900053010008530100085301000853010008F0
:1000A00053010008530100085301000853010008E0
:1000B000191B00080348854600F08AF800480047ED
:1000C00089220008A8140020084B1968086820300D
:1000D00080F30988022080F31488BFF36F8F3FBC40
:1000E000AE4608BC04BC62B6184700000C000020F5
:1000F000EFF3108072B6704780F310887047EFF30B
:1001000009800E4B1A6820381060F0C044464D46F6
:1001100056465F46F0C008B572B602F0B5FB62B64F
:100120000CBC116808681030F0C8A046A946B24659
:10013000BB4680F309882038F0C818470C0000201F
:100140000448804704480047FEE7FEE7FEE7FEE775
:10015000FEE7FEE7FD150008B500000830B50B46C8
:10016000014600202022012409E00D46D5409D4291
:1001700005D31D469540491B254695404019154617
:10018000521E002DF1DC30BD03460B439B0703D00C
:1001900009E008C9121F08C0042AFAD203E00B784C
:1001A0000370401C491C521EF9D27047D2B201E0C4
:1001B0000270401C491EFBD270470022F6E710B5C2
:1001C00013460A4604461946FFF7F0FF204610BDC5
:1001D000064C0125064E05E0E36807CC2B430C3C9A
:1001E00098471034B442F7D3FFF768FF9C2E0008FD
:1001F000BC2E000870B58C180578401C6B075B0F8F
:1002000001D10378401C2A1106D10278401C03E07A
:1002100006780E70401C491C5B1EF9D12B0705D4D3
:100220000023521E0DD40B70491CFAE70378401CC2
:10023000CB1A921C03E01D780D70491C5B1C521EEA
:10024000F9D5A142D8D3002070BD704770B5002405
:10025000014620314A78022A03D004218163012417
:1002600016E0026813680E25AB431360026813683A
:100270005B085B0013600122056C1346AB40C56B45
:100280006B604A7000220A70416B002900D08847D9
:10029000204670BDF8B500238DE001249C40A446A3
:1002A00022407DD04C68022C01D0122C0CD1DC08ED
:1002B000A40027183C6A5D07ED0E0F26AE40B4433C
:1002C0000E69AE4026433E6205685E000324B440DA
:1002D0000F79A543BF07BF0FB7402F4307604D6895
:1002E000012D05D0022D03D0112D01D0122D0ED1DC
:1002F0008568CF68A543B7402F4387604768654648
:10030000AF430D79ED06ED0F9D403D434560C56857
:10031000A5438C68B4402C43C4604C68E40049D5C4
:10032000284CA56901263543A561A4699D08344080
:100330000094254CAD002F19BC689D072E0F0F258A
:10034000B540AC430925ED06A84201D100250FE0D8
:100350001E4DA84201D101250AE01D4DA84201D140
:10036000022505E01B4DA84201D1032500E005252B
:10037000B5402543BD60184C25684E689543F6038B
:1003800000D51543256065684E689543B60300D5D2
:1003900015436560A5684E689543F60202D500E0F6
:1003A00008E01543A560E5684E689543B60200D5A0
:1003B0001543E5605B1C0A681446DC4000D06CE71E
:1003C000F8BD000000100240000001400004004899
:1003D00000080048000C004800040140002A01D039
:1003E0008161704781627047014800687047000072
:1003F0000400002002480168491C016070470000A9
:100400000400002010B50648016810221143016065
:10041000002000F007F800F041F8002010BD0000B7
:100420000020024000B5014687B000220D2000F0F8
:1004300061F80D2000F054F813488269C1140A4392
:10044000826180690840059004A9684600F060F95F
:1004500000F07AF90D49FFF781FE0E490C4A0A6057
:100460000D4A401ECA604860002008618860084646
:1004700000F0CEFB002802D0012007B000BD0548E7
:1004800000F0FAFBF9E700000010024040420F00C4
:10049000002C014058020020E703000008B50A487C
:1004A0008169012211438161816911400091C26912
:1004B00001040A43C261C069002208400321009080
:1004C000481F00F017F808BD00100240C106C90E11
:1004D00001208840014908607047000080E200E088
:1004E000C106C90E0120884001490860704700001C
:1004F00000E100E010B501F001F810BDF8B50546C7
:100500000068354CC00352D5E0690026C00007D40E
:10051000E16920040143E161E169014001260091A4
:100520002E480168C90510D4016882151143016085
:10053000FFF75AFF074604E0FFF756FFC01B642889
:1005400024D826480068C005F6D5206A03273F0254
:10055000384020D06968394081421CD0206A226A24
:10056000B843012109040A432262226A8A432262B3
:100570002062C0070FD0FFF737FF009008E0FFF7B9
:1005800033FF0099411A1648814201D90320F8BD72
:10059000206A8007F3D5206A6968B843084320625F
:1005A000002E04D0E169012000078143E161287831
:1005B000C00705D0206BA96880088000084320632D
:1005C0002878800605D5206B10218843E968084308
:1005D00020630020F8BD00000010024000700040C1
:1005E00088130000F8B5054644480E460068C00769
:1005F000C00FB0420AD2414801684908490031435E
:1006000001600068C007C00FB0425CD128783C4C44
:10061000800705D56068F0218843A96808436060B9
:100620002878C0073FD06868012813D021680228C5
:1006300013D08907002946DA6168890889000143D7
:100640006160FFF7D1FE6968074601290DD00229D4
:1006500017D024E021688903ECE78901EAE7FFF776
:10066000C3FEC11B2748814217D860680007800F6E
:100670000128F4D117E0FFF7B7FEC11B21488142E2
:100680000BD860680007800F0228F4D10BE0FFF759
:10069000ABFEC11B1B48814201D90320F8BD606835
:1006A0000007800FF3D115480168C907C90FB1428F
:1006B0000BD9016849084900314301600068C0074F
:1006C000C00FB04201D00120F8BD2878400706D500
:1006D0006068072109028843E9680843606000F008
:1006E00043F86168084A0906090F515CC840074988
:1006F00008600020FFF796FE0020F8BD00200240B1
:100700000010024088130000782C00080800002028
:1007100010B5072202600A4A53689B079B0F43608B
:100720005368F02423408360526807231B021A4059
:10073000C26004480068C007C00F086010BD000018
:100740000010024000200240044805490068496842
:10075000044A4905490F515CC84070470800002011
:1007600000100240882C000810B512A30FCB88B0EF
:100770006C460FC413A30FCB0FC416494A680C2054
:10078000134603401448042B0FD0082B0DD19302BD
:100790001B0F6C46E45CC96A04AB0907090F595C7E
:1007A000D20304D5FFF7DAFC604308B010BD0B4854
:1007B0006043FAE702030405060708090A0B0C0D5B
:1007C0000E0F10100102030405060708090A0B0C9E
:1007D0000D0E0F100010024000127A0000093D00BB
:1007E000FEB504460078D04DC00747D068680007C2
:1007F000800F012807D068680007800F022809D100
:100800006868C00306D52868800337D5606800286B
:100810007ED033E0012062680004012A11D08100FB
:10082000002A01D0052A10D02A6882432A6028684D
:10083000884328606068002814D0FFF7D5FD06467D
:100840000CE0296801432960F4E72A680A432A601A
:10085000F7E7FFF7C9FD801B64286FD8286880037D
:10086000F7D50BE0FFF7C0FD064604E0FFF7BCFD3F
:10087000801B6428F1D828688003F7D420780126EB
:10088000800700283BDA68680007800F07D0686897
:100890000007800F022809D16868C00306D42868C1
:1008A000800715D5E068012832D111E0E068002802
:1008B000286815D030432860FFF796FD074604E00E
:1008C000FFF792FDC01B0228C7D828688007F7D51C
:1008D0002868F82188432169C900084328600EE090
:1008E000400840002860FFF77FFD074604E0FFF75F
:1008F0007BFDC01B0228B0D828688007F7D4207879
:10090000000724D5E0690028686A10D0304300E071
:1009100008E16862FFF768FD074604E0FFF764FD41
:10092000C01B022899D8686A8007F7D50FE04008F5
:1009300040006862FFF758FD074605E09DE0FFF7BD
:1009400053FDC01B022888D8686A8007F7D4207836
:1009500004274007002860DA00200190E869C00001
:1009600008D4E969B8060143E961E9690140012059
:10097000009101906D480168C90511D40168821584
:1009800011430160FFF730FD009005E0FFF72CFDFB
:100990000099401A642870D864480068C005F5D5ED
:1009A000A06801280AD0002801D0052810D0286AA4
:1009B000400840002862286AB84301E0286A3043B2
:1009C0002862A068002812D0FFF70EFD00900AE010
:1009D000286A38432862F1E7FFF706FD0099411ABB
:1009E0005348814249D8286A8007F5D50DE0FFF7C2
:1009F000FBFC009006E0FFF7F7FC0099411A4C4819
:100A000081423AD8286A8007F5D40198002804D09A
:100A1000E969012000078143E9612078C00635D5E6
:100A2000606901280CD0401D686B23D0384368638F
:100A3000686B400840006863FFF7D6FC064622E07A
:100A4000686B38436863686B30436863FFF7CCFCBE
:100A5000064604E0FFF7C8FC801B02285BD8686BE1
:100A60008007F7D5686BF8218843A169C90008435E
:100A700068630BE0B8436863F4E74CE0FFF7B4FC4D
:100A8000801B022847D8686B8007F7D4206A0028AB
:100A900046D069680907890F022943D00126360626
:100AA0000228286805D0B0432860FFF79DFC044663
:100AB00033E0B0432860FFF797FC074604E0FFF7F8
:100AC00093FCC01B022826D828688001F7D4E86A66
:100AD000E16A000900010843E862616AA06A08430C
:100AE00069683D22120491430843686028683043D6
:100AF0002860FFF779FC044604E0FFF775FC001B53
:100B0000022808D828688001F7D509E0FFF76CFCB7
:100B1000001B022801D90320FEBD28688001F5D4FE
:100B20000020FEBD0120FEBD00100240007000400C
:100B300088130000FFB581B016460F46040005D0AB
:100B400025466035687A002803D007E0012005B00B
:100B5000F0BD00202872204600F0B2FA242068720E
:100B600020680168490849000160204600F0D8FE6D
:100B70000128ECD0606A002802D0204600F0FFFD7A
:100B80002068816801229203114381602068816896
:100B90005200914339438160049871050004084371
:100BA00021680A68064B1A4002430A6020680168FF
:100BB000012211430160204600F046FEC7E7000015
:100BC000FFFF00FC7047704770B502462032137F6C
:100BD000012B1BD001231377022454770468656826
:100BE0007026B5436560046865680E6835436560C6
:100BF0000468A5688026B543A560006884684968D4
:100C00000C43846053770020107770BD022070BDC4
:100C100070B5040005D025462035687F002802D035
:100C200006E0012070BD00202877204600F00AF879
:100C300002206877211D206800F026FD01206877DA
:100C4000002070BD08B50068094988420FD10948E5
:100C5000C26902210A43C261C069002208400090B3
:100C600003211020FFF746FC1020FFF739FC08BDD8
:100C700000040040001002400268D36801210B43C9
:100C8000D360006802680A430260002070470000D9
:100C90000168CA6852085200CA600068016A064AC0
:100CA000114207D1016A9210114203D1016849082B
:100CB000490001600020704711110000F8B5054699
:100CC00004462035287F012817D001272F770220DE
:100CD0006877226890687726FF23B0431B02984309
:100CE00090600868502837D00EDC202857D006DCEA
:100CF00000284ED0102840D14EE00220F8BD302808
:100D000050D0402839D13CE060282DD0702817D031
:100D100001221203801A0ED090422ED1CB684A686D
:100D20008968206800F0F4FC206881680122920341
:100D30001143816021E020688168C908C900F8E793
:100D4000CB684A688968206800F0E2FC21688868FE
:100D5000B0433043886010E0CA684968206800F0FA
:100D6000EAFC5021206806E0CA684968206800F063
:100D7000F3FC6021206800F0D6FC6F770020287714
:100D8000F8BDCA684968206800F0D5FC4021206899
:100D9000F1E700212068EEE710212068EBE7202131
:100DA0002068E8E730212068E5E7704770B5044621
:100DB000006801690025C9438907002915DBC1685E
:100DC000C943890711D4E91E0161012020772068F9
:100DD00080698007204602D0FFF7E7FF04E000F0BB
:100DE00096F8204600F094F8257720680169C943F9
:100DF000490717D4C168C943490713D40421C9431B
:100E0000016102202077206880698005800F2046DC
:100E100002D0FFF7CAFF04E000F079F8204600F0A6
:100E200077F8257720680169C943090716D4C16896
:100E3000C943090712D40821C9430161042020775E
:100E40002068C0698007204602D0FFF7AEFF04E0AB
:100E500000F05DF8204600F05BF825772068016916
:100E6000C943C90617D4C168C943C90613D41021A0
:100E7000C9430161082020772068C0698005800F80
:100E8000204602D0FFF791FF04E000F040F8204632
:100E900000F03EF8257720680169C943C90708D1E9
:100EA000C168C943C90704D1891E0161204600F009
:100EB00031F820680169C943090609D4C168C943EA
:100EC000090605D48021C94301612046FFF77AFE57
:100ED00020680169C943490609D4C168C943490664
:100EE00005D44021C9430161204600F027F820685D
:100EF0000169C943890609D4C168C943890605D473
:100F00002021C94301612046FFF75DFE70BD704797
:100F10007047000010B5044600680649884201D1B8
:100F2000FFF768FA04492068884201D100F0A6FB67
:100F300010BD0000002C01400004004070477047C5
:100F4000F8B503680446D96918680D072D0F07D155
:100F50008A0605D5820603D5204600F0A4FCF8BD1C
:100F60009A68002D64D0D507ED0FFF262136064084
:100F70002E435DD0CE0706D0C60504D501261E62DD
:100F8000E36E3343E3668F0702230426002F06DA5D
:100F9000D70704D027683B62E76E3743E7664F0701
:100FA00006D5D20704D022681662E26E1A43E266C2
:100FB0000A0709D5202202402A4305D023680822C7
:100FC0001A62E36E1343E366E26E002AC7D0890615
:100FD00004D5800602D5204600F065FCE06E0007CF
:100FE00003D42068806840061CD5204600F03FFCF2
:100FF00020688168490611D581684022914381604B
:10100000606E00280AD012494163606EFFF71EF936
:101010000028A4D0606E416B8847F8BD2046FFF7DA
:101020008EFFF8BD2046FFF78AFF0020E066F8BD7E
:101030000A0605D5020603D5204600F009FDF8BDD5
:101040004906FCD54006FAD5204600F01FFCF8BD45
:101050005B18000870B5040005D025466035687A35
:10106000002802D006E0012070BD00202872204632
:1010700000F026F8242068722068016849084900B9
:101080000160204600F04CFC0128EDD0606A002889
:1010900002D0204600F073FB206841680122D20292
:1010A00091434160206881680822914381602068F3
:1010B0000168012211430160204600F0C5FB70BDAC
:1010C000F0B587B0044614216846FFF776F8234F41
:1010D0000121266800222248490402230324012515
:1010E000BE4218D18769CE10374387618769374080
:1010F000059746690E434661406901930840059093
:101100006002009002AE34C609206946C006FFF7AF
:10111000C1F807B0F0BD134FBE42FAD1C6690E4305
:10112000C661C6690E40059646690E434661406930
:101130000193084005900E20009002AE34C60920AD
:101140006946C006FFF7A6F8002203211C20FFF71E
:10115000D1F91C20FFF7C4F9DBE70000003801409B
:101160000010024000440040FFB5074604466037C7
:10117000B87A83B00E46202864D1002E0CD0059892
:10118000002809D00120A1680003814207D120690D
:10119000002804D1F00702D0012007B0F0BD387A52
:1011A00001284FD0012038720020E0662220B8725A
:1011B000FFF71AF9029025464035059828830598CF
:1011C00068830122A1681203FF20914204D12169A2
:1011D000002907D11C4805E0002904D12169002914
:1011E00000D07F20A883A88B01901CE0688B401E54
:1011F000688306980090002220212046029B00F080
:101200005AFC002801D00320C7E70120A168000391
:10121000814202D1206900280DD02068818C01987C
:1012200001403170761C688B0028DFD12020B87215
:1012300000203872B1E72068808C01990840308026
:10124000B61CF0E70220A8E7FF0100007047FFB5D9
:10125000064604466036707A83B00D46202858D181
:10126000002D0CD00598002809D00120A1680003AA
:10127000814207D12069002804D1E80702D001206B
:1012800007B0F0BD307A012843D001203072002031
:10129000E06621207072FFF7A7F8019027464037DB
:1012A000059838820598788218E0788A401E7882FE
:1012B00006980090002280212046019B00F0FBFB55
:1012C000002818D10120A1680003814202D12069C1
:1012D000002812D02168287808856D1C788A00289B
:1012E000E3D106980090002240212046019B00F0A7
:1012F000E2FB002808D00320C2E728882168C00547
:10130000C00D0885AD1CE9E7202070720020307206
:10131000B6E70220B4E7704710B5084C20680068B3
:10132000800602D5064800688047206800680006ED
:1013300002D504480068804710BD0000E801002085
:10134000A8000020AC000020FEE7000000B585B03A
:10135000142206496846FEF717FF0021684600F090
:10136000CCFF0349086005B000BD0000642C0008F4
:1013700000000020F0B587B014216846FEF71DFF7D
:1013800021484269012149040A43426142690A40F5
:101390000592426949000A434261406909270840B1
:1013A000FF060590002250213846FFF717F8174E28
:1013B000002231461648FFF711F85020002401257D
:1013C000009002946946019503943846FEF762FF47
:1013D000C520400100900194694602943846FEF70A
:1013E00059FF029469460A48009601950394FEF756
:1013F00051FF084800900194694602940448FEF7A2
:1014000049FF07B0F0BD00000010024005100000C9
:1014100000040048F224000010B586B000240094B7
:1014200017480194029403940494144905940160AC
:101430004B214901846041600461C8218461C1601D
:10144000FFF7E6FB002801D0FEF7FFFE01200003B6
:10145000009069460A48FFF731FC002801D0FEF7EA
:10146000F4FE049404A906480594FFF7ADFB002898
:1014700001D0FEF7EAFE06B010BD000000040040F7
:101480003801002010B50C480A4901604B2149027F
:10149000416000218160C16001618161C1610C22F4
:1014A000016242614162FFF7D5FD002801D0FEF7DD
:1014B000CCFE10BD003801407801002010B50D4869
:1014C0000B4901604B21C901416000218160C1606D
:1014D00001618161C1610C22016242610B4641627E
:1014E0000A46FFF727FB002801D0FEF7AEFE10BD2D
:1014F00000440040E8010020704700008307FF22FD
:10150000DB0E9A408907090E994000280BDA000784
:10151000000F0838830808489B001818C3699343D4
:101520000B43C3617047830804489B001B1818686D
:10153000904308431860704700ED00E000E400E0CD
:101540007047000008B500204B23DB010322012176
:10155000009000F0F3FC00F013FB03A000F0E8FAA9
:1015600000F02EFDFCE70000537461727444656660
:1015700061756C745461736B0D0A000010B5FEF751
:10158000B7FD044601F0BAFA002803D00120034950
:10159000000748602046FEF7AFFD10BD00ED00E0FB
:1015A00070B594B030216846FEF707FE00240E9413
:1015B000139410200994022504900D940F94052093
:1015C000129401260095C0040C94109403960A907E
:1015D000119408950B946846FFF702F907200C90C8
:1015E0000E9401210D950F940CA8FEF7FBFF10A897
:1015F00010961294FEF782FF14B070BD1348016874
:101600000122114301604168114A114041600168A3
:10161000104A114001600168012292049143016067
:1016200041683F22120491434160C16A09090901DE
:10163000C162016BFF22143291430163416B49087F
:1016400049004163002181607047000000100240A2
:101650000CB8FF08FFFFF6FE10B50248FFF7A6FB27
:1016600010BD00005802002010B51020FEF72EFF1C
:101670000148FFF79BFB10BD3801002001480068BE
:1016800000470000B0000020F0B502681A4B1B4C68
:10169000984201D0A04203D17025AA434D682A4345
:1016A000174D184E184F98420AD0A04208D0174C38
:1016B000A04205D0A84203D0B04201D0B84205D123
:1016C0001446032212029443CA6822438024A24390
:1016D0004C69224302608A68C2620A688262984248
:1016E00005D0A84203D0B04201D0B84201D1096967
:1016F000016301214161F0BD002C01400004004064
:1017000000400140004401400048014000200040EA
:1017100030B58468FF252D021B021343AC430B43F5
:101720002343836030BD826870239A430A430721B4
:101730000A438260704730B5036A046A6408640033
:1017400004628469F025AC43120122430A24A343B6
:101750000B438261036230BD30B5036A1024A3439A
:1017600003628469036A0F252D031203AC432243ED
:10177000A024A343090119438261016230BD10B561
:10178000818CC90707D001684A6801235B049A432A
:10179000836A1A434A60818C890707D501684A68C1
:1017A00001231B049A43C36A1A434A60818C490788
:1017B00007D501684A6801239B049A43036B1A43C7
:1017C0004A60818C090707D501684A680123DB0359
:1017D0009A43436B1A434A60818CC90607D5026855
:1017E000916801231B039943836B19439160818C9A
:1017F000890607D501688A6801235B039A43C36B96
:101800001A438A60818C490612D503685A680121FF
:101810000905046C8A4322435A60026C8A4207D14C
:101820000268516803235B059943436C1943516077
:10183000818C090607D501684A680123DB04806CA6
:101840009A4302434A6010BD0021C16620226030E5
:101850004272827201720846704710B5406A0022D7
:10186000014640314A834A82FFF769FB10BD016897
:101870000A68FF2321339A430A6001688A68520884
:1018800052008A60202160308172704710B5016873
:101890000A6840239A430A60202269210A54FFF70C
:1018A0003AFD002010BD70B5024640320346603359
:1018B000948B9D7A0168222D05D0886908221043F7
:1018C0008861022070BD898C012685683603B54287
:1018D00002D10569002D0BD02140446D651C456582
:1018E0002170518B491E0904090C518307D015E062
:1018F000456D21402980416D891C4165F1E70168F2
:101900000A68FF242134A2430A6001688A685208E9
:1019100052008A6020219972FFF798FC002070BD68
:10192000F8B504462369A268E5691A436369102083
:101930002B43002125681A432B680E463E4F3B403F
:1019400013432B6023685A6803252D03AA43E568D7
:101950002A435A60236AA26925681A43AB680B2799
:101960003F02BB431343AB60344A2568954210D114
:10197000334A126B9207920F0ED0012A05D0022A29
:1019800005D0032A09D1022007E0042005E0082041
:1019900003E02C4A954200D100200122E369D203E2
:1019A000934224D100280CD002280DD0042813D053
:1019B000082817D001260A0912010807400F104312
:1019C0002FE0FEF7C1FE09E061681F4A4808801851
:1019D000FEF7C4FB81B2EEE7FEF7C6FE6168400089
:1019E0004A08F4E76168012248081204EFE700287A
:1019F00008D0022809D004280BD0082814D00126CA
:101A00003046F8BDFEF7A0FE05E061680F4A4808C1
:101A10000CE0FEF7A9FE61684A088018FEF79EFBFD
:101A200080B22168C860EBE7616848088018FEF75B
:101A300095FB80B2E860E3E7F369FFFF00380140FF
:101A400000100240004400400024F40000127A001C
:101A50006921095C212901D00220704702464032E9
:101A6000518A002912D0012381681B03994202D1B7
:101A70000169002915D0C16C4B1CC364006809784A
:101A80000185508A401E50820020704701680A6814
:101A900080239A430A600068016840221143016074
:101AA000F2E7C16C03680988C905C90D1985C16CC5
:101AB000891CC164E5E7FFB581B017460E460446B0
:101AC0000A9D1DE0681C1BD0002D05D0FEF78CFC84
:101AD0000499401AA84213D920680168FF22A13254
:101AE0009143016020688168490849008160202095
:101AF00060346072A07200202072032005B0F0BD37
:101B00002068C1693046884304D00020B842D9D04B
:101B10000020F3E70120F9E710B5FFF7FDFB1C20DB
:101B2000FEF7D4FC0148FFF70BFA10BDE8010020D6
:101B300010B5024A024900F014F810BD6D220008E9
:101B40003401002002E008C8121F08C1002AFAD19F
:101B500070477047002001E001C1121F002AFBD12D
:101B60007047F8B516460F460446002503E039468F
:101B7000B047641C6D1C20780028F8D12846F8BDB9
:101B800070B5064D00242878012802D0062420468E
:101B900070BD2869804700202870F8E78800002081
:101BA00070B50C460988002505292ED14178184EBC
:101BB0000A0281781143C278491C1302027989B262
:101BC0001A43531EB34220D2002323800123037003
:101BD00023885B1C2380401C530702D0D3085B1C66
:101BE00000E0D308DEB206702388401C5B1C238013
:101BF000002300F0E3FA002803D000F0CFFC0546F4
:101C000004E020888019208000E00325284670BD6C
:101C1000CF07000070B50C460988002505292DD195
:101C20004178184E0A0281781143C278491C130288
:101C3000027989B21A43531EB3421FD20023238074
:101C40000223037023885B1C2380401C530702D0AF
:101C5000D3085B1C00E0D308DEB206702388401C6A
:101C60005B1C238000F0ACFA002803D000F096FC47
:101C7000054604E020888019208000E003252846DE
:101C800070BD0000CF07000070B50C460988002524
:101C9000052923D141780A02817811430279491C30
:101CA000531E89B27C2B19D8002323800323037091
:101CB000238856005B1C238046702388801C5B1C95
:101CC0002380002300F07EFA002803D000F066FC99
:101CD000054604E020888019208000E0032528467E
:101CE00070BD70B50C4609880025052925D14178BD
:101CF0000A0281781143C278491C1302027989B221
:101D00001A43531E7C2B18D2002323800423037014
:101D1000238856005B1C238046702388801C5B1C34
:101D2000238000F07FFA002803D000F037FC05463E
:101D300004E020888019208000E00325284670BD3B
:101D4000F8B50446088800270D460A2844D3607871
:101D50000102A0780843401C80B20090E078267908
:101D6000000206436079227A0102A079731E0843BB
:101D7000401C81B2E07900020243607A7C2B2AD8B1
:101D8000002A28D0792A26D85300834223D120461E
:101D900001230A3000F016FA002814D1002129800E
:101DA000172121702988601C491C29807400047047
:101DB00029880023491C29803246401C009900F0E4
:101DC00001FA002803D000F0E9FB074604E0288868
:101DD0000019288000E003273846F8BD70B5064C8E
:101DE0000D4622880549401CFEF7CEF92088401C8C
:101DF0002880002070BD00007A000020880F00209D
:101E000038B50988002405290DD141780A02817866
:101E10001143491C027989B2002A04D1C278FF2AF1
:101E200004D0002A02D00324204638BD00226B468D
:101E30005A70C078FF280BD01A7001231A466846E2
:101E400000F0BCF90028EFD000F0A8FB0446EBE757
:101E500001201870F1E710B509880024052902D087
:101E60000324204610BD417801230A028178C01C5A
:101E70001143491C89B21A4600F0A4F90028F0D099
:101E800000F08CFB0446ECE7F8B50D460988002409
:101E9000052926D9417846790A0281781143491CDF
:101EA00089B28C46C178027909020A43510702D0EF
:101EB000D108491C00E0D1080B4F531EC9B2BB42E8
:101EC0000FD8B1420DD101236146801D00F076F993
:101ED000002803D000F062FB044603E005202880C0
:101EE00000E003242046F8BDAF07000070B50D46A2
:101EF0000988002406291ED341780A0281781143FB
:101F0000C278491C1302027989B21A434379561EDA
:101F1000772E10D85606360E9E420CD10123801D16
:101F200000F050F9002803D000F038FB044603E02D
:101F30000520288000E00324204670BDF8B51E4629
:101F4000069B17460546002906D0F72904D8144CED
:101F500008462171002D01D002261CE011492161A3
:101F6000114961611149E1601149A1610021E161FB
:101F700010492162104961621049A1623246394616
:101F800000F07CF8060006D100F0B8FC002804D070
:101F90006571012020703046F8BD0326FBE7000084
:101FA0008800002081210008A52100081D210008CB
:101FB000C92000086D2900081D2A0008D929000839
:101FC00038B52D4C2078002801D0062038BD684651
:101FD00000F086FC01284DD168460078002849D0E1
:101FE000012802D0022845D111E0234AA369921D9D
:101FF000911CC81F984700283CD1607821798842FD
:1020000001D0002836D1022000F080FC32E0A06828
:1020100001210278A270E170174B00212C33CD0012
:102020005D5D002D0CD0954207D1C900C9184A68E2
:102030001149891D9047E07002E0491C1029EEDB30
:102040006078002816D0E07800280ED00021E180CA
:10205000A17880221143A2681170E188491C89B2DD
:10206000E1805054E088401CE080E368E2882079F9
:10207000A1689847002038BD88000020F8B51F46A9
:1020800015460E46002400F077FB3B460822294601
:10209000304600F053FC01280ED14B20000285424F
:1020A00001D9232003E069000648FEF757F880B203
:1020B00000F056FC012800D0032400F069FB204604
:1020C000F8BD0000A07F1700F7B5164607460025AB
:1020D00000F052FB0F4CA088FF2801D9C046C04633
:1020E000A088042805D3A1880B4800F0CBFA00286B
:1020F00004D0052500F04CFB2846FEBD06480078BC
:102100003870A088C01E308003480199401C0860C8
:10211000F0E700007C000020A80F0020F7B50E4675
:102120000746002500F028FB134C6078012804D0F6
:10213000052500F02DFB2846FEBD701E0126A0607F
:10214000668007706288029951186180618800F08A
:1021500099FA6188094A5318491C61801870010A6C
:1021600060881218401C60801170267001210020C8
:1021700000F0CCFADDE700007C000020A80F002072
:1021800010B500F0F9FA0649002048700146012018
:1021900000F0BCFA00F0E0FA00F0FAFA10BD00001E
:1021A0007C00002010B500F0E7FA0021084600F09E
:1021B000ADFA00F0C3FA00F0EBFA10BD0120704751
:1021C00001207047F0B500258C18042C24D8144C3D
:1021D00064880C1B12490C31002B0CD0012B1CD134
:1021E00017E06300CE5A521E360A0670CB5C43706D
:1021F000801C92B2641C002AF3D10EE003786600C2
:102200001B028B534778521E1F43801C8F5392B280
:10221000641C002AF2D100E001252846F0BD000030
:102220006600002070B5104B11251D8022255D80B1
:1022300033259D804425DD8000248D18042D10D881
:102240001D1F2D88491B09E04D005E5B521E360A9A
:1022500006705D5D4570801C92B2491C002AF3D166
:1022600000E00124204670BD6A00002013B5044B35
:10227000012269460348FEF7EAFF00981CBD0000F2
:10228000FFFF00007801002008B5FEF7BBF8FFF75C
:1022900087F9FFF76FF8FFF7BFF8FFF70FF9FFF7C0
:1022A000F1F8FFF753F800F023F808A0FFF740FC1F
:1022B00000204B23DB01032201210090FFF73EFEAB
:1022C000FFF75EFCFFF77CFEFCE70000555345522C
:1022D00020434F444520424547494E205748494CEA
:1022E000450D0A0001460020842900D0C81C704713
:1022F00010B500F09BFA002010BD3EB50446082042
:102300000D46205EFFF7EEFF02A901910090208AA2
:102310002B4682B22168606800F0C8FB012801D01A
:1023200000203EBD02983EBDF8B5054600F024FAF7
:10233000294CA068401CA0602068284F002803D0CA
:102340006069002827D02CE02560A068012828D1EA
:10235000002614207043C01900F0BEF9761C072E29
:10236000F7D31E488C3000F0B7F91C48A03000F0BD
:10237000B3F91A48B43000F0AFF91848C83000F08B
:10238000ABF91648DC3000F0A7F914488C306063D4
:102390001430A06305E02068E96AC06A884200D86A
:1023A0002560606A401C6062E86A2169884200D941
:1023B000206114214843C019291D00F09BF900F049
:1023C000E7F96069002806D02068E96AC06A884297
:1023D00001D200F01FFAF8BD0C0000209802002086
:1023E00070B5114E114C18E000F046FA3068002824
:1023F00017D000F0E1FB00F0BFF9F068C568281DB8
:1024000000F058F9A068401EA0606068401E60603F
:1024100000F0BEF9284600F00BF860680028E3D110
:1024200070BD00F0C9FBF8E7600300200C0000203D
:1024300010B50446006B00F0B9F9204600F0B6F97B
:1024400010BD000003210E488902420705D0C01DBF
:10245000C0080B4AC000821A891A0A4A0023411890
:1024600009C20839C908C900183A11604B600B60ED
:102470000B1A0AC093600120C0075360D0607047F8
:102480008803002058000020044CFFF7A9FF2068B3
:102490000128FAD900F0BEF9F7E700009802002001
:1024A000FFB581B00C9C9000236B001F1818C60864
:1024B0000A9DF600700701D072B6FEE723180A5C89
:1024C00020331A750A5C002A02D0401C1028F5D36C
:1024D0002046403000270090C770072D00D3062506
:1024E000E562A764201D656400F001F920461830FC
:1024F00000F0FDF824610720401B6462A061E764DE
:10250000009807743046049A019900F0ABF82060F7
:102510000B98002800D0046005B0F0BD30B511491B
:1025200000E011460A688242FBD34B685C18844283
:1025300003D1406818184860084643681C18944244
:1025400009D1084C103C2468A24209D052689A185C
:1025500042600A6812680260814200D0086030BDA3
:102560000460F9E7580000200648416B096800291B
:1025700005D0416BC968C96849688162704700210C
:10258000C943FAE70C00002003480068401C72B6FB
:1025900000D0FEE7FEE7000060000020002804D025
:1025A000012803D0072803D0042070470220704779
:1025B00006207047F8B50546002700F05DF9284E63
:1025C0003068002801D1FFF73DFFF06805423FD198
:1025D000002D3DD00835680708D06807400F082156
:1025E000081A4519680701D072B6FEE7002D2FD0F2
:1025F000706885422CD81A48103001460C6801E0FA
:1026000020460C466168A94202D221680029F7D110
:1026100031688C421CD00768216801606068083707
:10262000411B102908D96019420701D072B6FEE794
:1026300041606560FFF772FF61687068401A706002
:10264000B268904200D2B060F0680143002003C439
:1026500000F0B2FA780701D072B6FEE73846F8BD4E
:102660004800002010B50124031F24061C601B1F16
:102670001960191F024B0B60143940380A6010BDF5
:102680008925000870B50A4DFF23EE1D1A46F9365C
:1026900005E0047854402A5D5A40335D401C0C46E6
:1026A000491E89B2002CF4D11802104370BD0000FD
:1026B000902C00084368826801699A6083684268C8
:1026C0005A604A68824201D182684A6000220261EF
:1026D0000868401E086070470146083100224160CA
:1026E000D243C16082600161002101607047002116
:1026F0000161704742684A6093688B6093685960D3
:10270000916008610168491C0160704710B50A4A70
:10271000202413680028186801D0204300E0A0435B
:1027200018608020002911680A6801D0024300E087
:1027300082430A6010BD0000E801002010B5054882
:10274000FEF7A6FA03480021026851620068891E5C
:10275000016110BD3801002010B506480121026852
:10276000C94311610068002141620248FEF784FA02
:1027700010BD00003801002072B604480168491CF1
:102780000160BFF34F8FBFF36F8F70476000002071
:1027900005490868002804D0401E086000D162B6D0
:1027A000704772B6FEE700006000002070B5002898
:1027B0001AD004460D4D083C6068E968084201D112
:1027C00072B6FEE72268002A01D072B6FEE788439F
:1027D000606000F051F860686968401868602046E1
:1027E000FFF79CFE00F0E8F970BD000048000020F3
:1027F00010B506487D21C9000068FDF7AFFC04490B
:10280000401E48610720086110BD0000080000203C
:1028100000E000E00120044900074860BFF34F8F4B
:10282000BFF36F8F7047000000ED00E01CB50E484D
:1028300000240190234680220CA100940D4800F052
:1028400035F9012803D0401C0CD172B6FEE772B6F0
:1028500000210548C9432C38816201214161C460CF
:1028600000F00CF91CBD00003800002049444C4524
:1028700000000000892400080248016B491C016324
:10288000704700000C00002010B51348016B0029B0
:1028900002D00121C16110BD0021C16101690F4A4F
:1028A00002E0002915D0491E14234B43D358002BB6
:1028B000F7D014234B439A18536814465B680834C6
:1028C0005360A34201D15B685360DA680260016122
:1028D00010BD72B6FEE700000C0000209802002038
:1028E000054902464B780020002B04D00878107070
:1028F0000020487001207047640000200249002039
:102900004870012070470000640000200249012245
:102910004A700870104670476400002010B501230B
:1029200001461A460448FEF71FFC002801D000208B
:1029300010BD012010BD0000E801002001207047FB
:1029400001B501231A4669460448FEF780FC0028B9
:1029500001D0002008BD012008BD0000E8010020D2
:1029600010B5FEF759FD012010BD000038B5184C18
:1029700000252078002801D0C046C0466846FFF7F1
:10298000CDFF6078002806D01249012807D0022820
:1029900010D0032801D1FFF7DFFE284638BD002004
:1029A000A08068460278A0880918401CA0800A70A0
:1029B00002200BE0A088FF2807D868460278A0888C
:1029C0000918401CA0800A70E5E703206070E2E768
:1029D0007C000020A80F002070B50F4D00246878FF
:1029E00000280FD002280CD003280ED068780028C9
:1029F0000BD06878022808D06878032805D0C04634
:102A0000C0460120FFF782FF0446FFF797FE012032
:102A10006870204670BD00007C00002070B5164C28
:102A200000256078012801D0C046C04620780028E3
:102A300002D001281DD104E000210120FFF766FE2D
:102A400017E0608800280AD0A0680078FFF778FFB8
:102A5000A068401CA0606088401E608009E00320E0
:102A6000FFF754FF054600210120FFF74FFE00202D
:102A70002070284670BD00007C00002010B5094879
:102A8000016AFF22120411430162016A120211431A
:102A90000162FFF7ADFE044900200860FDF714FB5A
:102AA000002010BD00ED00E060000020FFB585B003
:102AB000164690000F9FFFF77DFD05001AD05420A9
:102AC000FFF778FD040012D0256300210E980391D2
:102AD0000197009002943246089B06990598FFF7EB
:102AE000DFFC2046FFF720FC012009B0F0BD28469E
:102AF000FFF75CFE0020C043F7E70000F8B52C4C60
:102B00000027206B002808D0A069401CA061E06964
:102B1000002800D001273846F8BDE668761CE6603C
:102B20000ED1606B0068002801D072B6FEE7606BC2
:102B3000A16B6163A063206A401C2062FFF714FD53
:102B4000A06A86420AD3606B0068002810D0606BD0
:102B5000C068C568686886420DD2A06220681421EA
:102B6000C06A4843134908580128D0D90127CEE745
:102B70000020C043F1E7281DFFF79CFDA86A00284C
:102B800003D028461830FFF795FDE86A216988428E
:102B900000D920611421484306494018291DFFF738
:102BA000A9FDE86A2168C96A8842CCD30127CAE72F
:102BB0000C00002098020020F8B5284C0025206B5E
:102BC0002E46002808D0FFF7D7FD206B401E20635B
:102BD000206B002802D03DE072B6FEE7A168204FCE
:102BE00000291DD136E0F868C56828461830FFF77F
:102BF00061FD281DFFF75EFDE86A2169884200D962
:102C00002061142148431649B4394018291DFFF7A3
:102C100071FDE86A2168C96A884201D30120E06138
:102C200038680028DFD1002D01D0FFF79DFCA56991
:102C3000002D09D00127FFF761FF002800D0E761D0
:102C40006D1EF8D10020A061E069002802D00126A5
:102C5000FFF7E0FDFFF79CFD3046F8BD0C000020BB
:102C60004C030020902E00084515000800000000CD
:102C700000000000800000000000000000000000D4
:102C80000102030406070809000000000102030412
:102C900000C1814001C0804101C0804100C181402C
:102CA00001C0804100C1814000C1814001C080411C
:102CB00001C0804100C1814000C1814001C080410C
:102CC00000C1814001C0804101C0804100C18140FC
:102CD00001C0804100C1814000C1814001C08041EC
:102CE00000C1814001C0804101C0804100C18140DC
:102CF00000C1814001C0804101C0804100C18140CC
:102D000001C0804100C1814000C1814001C08041BB
:102D100001C0804100C1814000C1814001C08041AB
:102D200000C1814001C0804101C0804100C181409B
:102D300000C1814001C0804101C0804100C181408B
:102D400001C0804100C1814000C1814001C080417B
:102D500000C1814001C0804101C0804100C181406B
:102D600001C0804100C1814000C1814001C080415B
:102D700001C0804100C1814000C1814001C080414B
:102D800000C1814001C0804101C0804100C181403B
:102D900000C0C101C30302C2C60607C705C5C404FB
:102DA000CC0C0DCD0FCFCE0E0ACACB0BC90908C86B
:102DB000D81819D91BDBDA1A1EDEDF1FDD1D1CDC5B
:102DC00014D4D515D71716D6D21213D311D1D010CB
:102DD000F03031F133F3F23236F6F737F53534F4BB
:102DE0003CFCFD3DFF3F3EFEFA3A3BFB39F9F8382B
:102DF00028E8E929EB2B2AEAEE2E2FEF2DEDEC2C1B
:102E0000E42425E527E7E62622E2E323E12120E08A
:102E1000A06061A163A3A26266A6A767A56564A47A
:102E20006CACAD6DAF6F6EAEAA6A6BAB69A9A868EA
:102E300078B8B979BB7B7ABABE7E7FBF7DBDBC7CDA
:102E4000B47475B577B7B67672B2B373B17170B04A
:102E5000509091519353529296565797559594543A
:102E60009C5C5D9D5F9F9E5E5A9A9B5B99595898AA
:102E7000884849894B8B8A4A4E8E8F4F8D4D4C8C9A
:102E8000448485458747468682424383418180400A
:102E900064656661756C745461736B00BC2E0008C8
:102EA0000000002038010000F4010008042F000891
:102EB0003801002070130000541B000891035512C4
:102EC0007A1AAA010124022B02321113DD1D3308E4
:102ED0000413E31C3308031A8908321013ED1E3360
:102EE00008061A570832171A4128320113A11B335A
:102EF00008051A01182A0F30190829741A15380103
:042F00003400000099
:04000005080000B53A
:00000001FF
