:020000040800F2
:10000000E8060020C90000087D1200081111000850
:1000100000000000000000000000000000000000E0
:100020000000000000000000000000004113000874
:100030000000000000000000C5120008D900000800
:10004000DB00000800000000DB000008DB00000807
:10005000DB000008DB000008DB000008DB00000814
:1000600000000000DB000008DB000008DB000008E7
:10007000DB000008E9130008DB00000800000000B6
:10008000F9130008DB00000800000000DB00000896
:10009000DB000008DB000008DB000008DB000008D4
:1000A000DB000008DB000008DB000008DB000008C4
:1000B000A91800080348854600F04EF8004800479C
:1000C000D1200008E8060020044880470448004783
:1000D000FEE7FEE7FEE7FEE7FEE7FEE78D1300081A
:1000E000B500000830B50B4601460020202201244F
:1000F00009E00D46D5409D4205D31D469540491B5C
:100100002546954040191546521E002DF1DC30BDA4
:1001100003460B439B0703D009E008C9121F08C020
:10012000042AFAD203E00B780370401C491C521ECB
:10013000F9D27047D2B201E00270401C491EFBD2D6
:1001400070470022F6E710B513460A4604461946E2
:10015000FFF7F0FF204610BD064C0125064E05E0D6
:10016000E36807CC2B430C3C98471034B442F7D3D8
:10017000FFF7A4FF98250008B8250008704770B560
:100180000024014620314A78022A03D004218163E9
:10019000012416E0026813680E25AB431360026861
:1001A00013685B085B0013600122056C1346AB40CB
:1001B000C56B6B604A7000220A70416B002900D049
:1001C0008847204670BD31B500F0BCF8009C05465C
:1001D000601C00D0641C00F0B5F8401BA042FAD3AC
:1001E00038BD0000F8B500238DE001249C40A446F2
:1001F00022407DD04C68022C01D0122C0CD1DC089E
:10020000A40027183C6A5D07ED0E0F26AE40B443EC
:100210000E69AE4026433E6205685E000324B4408A
:100220000F79A543BF07BF0FB7402F4307604D6845
:10023000012D05D0022D03D0112D01D0122D0ED18C
:100240008568CF68A543B7402F43876047686546F8
:10025000AF430D79ED06ED0F9D403D434560C56808
:10026000A5438C68B4402C43C4604C68E40049D575
:10027000284CA56901263543A561A4699D08344031
:100280000094254CAD002F19BC689D072E0F0F253B
:10029000B540AC430925ED06A84201D100250FE089
:1002A0001E4DA84201D101250AE01D4DA84201D1F1
:1002B000022505E01B4DA84201D1032500E00525DC
:1002C000B5402543BD60184C25684E689543F6033C
:1002D00000D51543256065684E689543B60300D583
:1002E00015436560A5684E689543F60202D500E0A7
:1002F00008E01543A560E5684E689543B60200D551
:100300001543E5605B1C0A681446DC4000D06CE7CE
:10031000F8BD000000100240000001400004004849
:1003200000080048000C0048000401400069084033
:1003300000D001207047002A01D08161704781629E
:10034000704700000148006870470000040000206A
:1003500002480168491C0160704700000400002049
:1003600010B506480168102211430160002000F01A
:1003700007F800F041F8002010BD00000020024006
:1003800000B5014687B000220D2000F05DF80D2079
:1003900000F050F813488269C1140A4382618069F1
:1003A0000840059004A9684600F0E8F800F002F95A
:1003B0000D49FFF797FE0E490C4A0A600D4A401E90
:1003C000CA604860002008618860084600F056FB5B
:1003D000002802D0012007B000BD054800F082FBD4
:1003E000F9E700000010024040420F00002C0140DD
:1003F00088010020E703000008B508488169012250
:1004000011438161816911400091C26901040A436D
:10041000C261C0690840009008BD000000100240A1
:10042000C106C90E012088400149086070470000DC
:1004300080E200E0C106C90E012088400149086041
:100440007047000000E100E010B500F019FF10BD9A
:10045000F8B5054644480E460068C007C00FB042D4
:100460000AD24148016849084900314301600068E7
:10047000C007C00FB0425CD128783C4C800705D53E
:100480006068F0218843A968084360602878C00745
:100490003FD06868012813D02168022813D089074B
:1004A000002946DA61688908890001436160FFF725
:1004B00049FF6968074601290DD0022917D024E0B9
:1004C00021688903ECE78901EAE7FFF73BFFC11BDD
:1004D0002748814217D860680007800F0128F4D1AF
:1004E00017E0FFF72FFFC11B214881420BD860683E
:1004F0000007800F0228F4D10BE0FFF723FFC11B98
:100500001B48814201D90320F8BD60680007800FB5
:10051000F3D115480168C907C90FB1420BD9016869
:1005200049084900314301600068C007C00FB0426C
:1005300001D00120F8BD2878400706D56068072162
:1005400009028843E9680843606000F043F8616885
:10055000084A0906090F515CC84007490860002095
:10056000FFF70EFF0020F8BD0020024000100240FF
:1005700088130000802300080800002010B507221F
:1005800002600A4A53689B079B0F43605368F0243C
:1005900023408360526807231B021A40C26004484C
:1005A0000068C007C00F086010BD000000100240C6
:1005B000002002400448054900684968044A49058A
:1005C000490F515CC84070470800002000100240ED
:1005D0009023000810B512A30FCB88B06C460FC44F
:1005E00013A30FCB0FC416494A680C2013460340CF
:1005F0001448042B0FD0082B0DD193021B0F6C460F
:10060000E45CC96A04AB0907090F595CD20304D53D
:10061000FFF768FD604308B010BD0B486043FAE780
:1006200002030405060708090A0B0C0D0E0F101033
:100630000102030405060708090A0B0C0D0E0F1032
:100640000010024000127A0000093D00FEB5044689
:100650000078D04DC00747D068680007800F012898
:1006600007D068680007800F022809D16868C003B6
:1006700006D52868800337D5606800287ED033E02F
:10068000012062680004012A11D08100002A01D0F3
:10069000052A10D02A6882432A6028688843286087
:1006A0006068002814D0FFF74DFE06460CE029686C
:1006B00001432960F4E72A680A432A60F7E7FFF755
:1006C00041FE801B64286FD828688003F7D50BE0B3
:1006D000FFF738FE064604E0FFF734FE801B64286F
:1006E000F1D828688003F7D42078012680070028F5
:1006F0003BDA68680007800F07D068680007800F42
:10070000022809D16868C00306D42868800715D577
:10071000E068012832D111E0E0680028286815D08F
:1007200030432860FFF70EFE074604E0FFF70AFE9D
:10073000C01B0228C7D828688007F7D52868F82189
:1007400088432169C900084328600EE04008400042
:100750002860FFF7F7FD074604E0FFF7F3FDC01B35
:100760000228B0D828688007F7D42078000724D55D
:10077000E0690028686A10D0304300E008E1686250
:10078000FFF7E0FD074604E0FFF7DCFDC01B022891
:1007900099D8686A8007F7D50FE040084000686282
:1007A000FFF7D0FD074605E09DE0FFF7CBFDC01B3E
:1007B000022888D8686A8007F7D420780427400781
:1007C000002860DA00200190E869C00008D4E969D7
:1007D000B8060143E961E9690140012000910190F7
:1007E0006D480168C90511D4016882151143016083
:1007F000FFF7A8FD009005E0FFF7A4FD0099401A5F
:10080000642870D864480068C005F5D5A068012840
:100810000AD0002801D0052810D0286A40084000DE
:100820002862286AB84301E0286A30432862A06839
:10083000002812D0FFF786FD00900AE0286A3843AE
:100840002862F1E7FFF77EFD0099411A5348814283
:1008500049D8286A8007F5D50DE0FFF773FD0090B1
:1008600006E0FFF76FFD0099411A4C4881423AD8E3
:10087000286A8007F5D40198002804D0E96901208E
:1008800000078143E9612078C00635D560690128F9
:100890000CD0401D686B23D038436863686B4008F8
:1008A00040006863FFF74EFD064622E0686B384360
:1008B0006863686B30436863FFF744FD064604E0F5
:1008C000FFF740FD801B02285BD8686B8007F7D5D7
:1008D000686BF8218843A169C900084368630BE08D
:1008E000B8436863F4E74CE0FFF72CFD801B022857
:1008F00047D8686B8007F7D4206A002846D069681B
:100900000907890F022943D00126360602282868E4
:1009100005D0B0432860FFF715FD044633E0B0432F
:100920002860FFF70FFD074604E0FFF70BFDC01B33
:10093000022826D828688001F7D4E86AE16A00090D
:1009400000010843E862616AA06A084369683D22C1
:100950001204914308436860286830432860FFF719
:10096000F1FC044604E0FFF7EDFC001B022808D868
:1009700028688001F7D509E0FFF7E4FC001B022896
:1009800001D90320FEBD28688001F5D40020FEBDFA
:100990000120FEBD001002400070004088130000DE
:1009A000FFB581B016460F46040005D025466035D8
:1009B000687A002803D007E0012005B0F0BD0020D0
:1009C0002872204600F07CFA2420687220680168B2
:1009D000490849000160204600F06AFE0128ECD079
:1009E000606A002802D0204600F091FD20688168EE
:1009F0000122920311438160206881685200914373
:100A000039438160049871050004084321680A682D
:100A1000064B1A4002430A60206801680122114314
:100A20000160204600F0D8FDC7E70000FFFF00FC92
:100A30007047704770B502462032137F012B1BD0E0
:100A40000123137702245477046865687026B54340
:100A50006560046865680E68354365600468A5686C
:100A60008026B543A5600068846849680C438460AB
:100A700053770020107770BD022070BD70B5040060
:100A800005D025462035687F002802D006E00120E9
:100A900070BD00202877204600F00AF80220687711
:100AA000211D206800F0B8FC01206877002070BD8F
:100AB00008B50068094988420FD10948C269022176
:100AC0000A43C261C069002208400090032110203F
:100AD000FFF7BAFC1020FFF7ADFC08BD0004004092
:100AE000001002400268D36801210B43D360006804
:100AF00002680A4302600020704700000168CA686B
:100B000052085200CA600068016A064A114207D1C1
:100B1000016A9210114203D101684908490001603D
:100B20000020704711110000F8B505460446203535
:100B3000287F012817D001272F77022068772268A5
:100B400090687726FF23B0431B02984390600868A3
:100B5000502837D00EDC202857D006DC00284ED095
:100B6000102840D14EE00220F8BD302850D0402857
:100B700039D13CE060282DD0702817D00122120313
:100B8000801A0ED090422ED1CB684A6889682068BE
:100B900000F086FC20688168012292031143816085
:100BA00021E020688168C908C900F8E7CB684A6875
:100BB0008968206800F074FC21688868B04330437D
:100BC000886010E0CA684968206800F07CFC502109
:100BD000206806E0CA684968206800F085FC60214A
:100BE000206800F068FC6F7700202877F8BDCA689D
:100BF0004968206800F067FC40212068F1E7002187
:100C00002068EEE710212068EBE720212068E8E764
:100C100030212068E5E7704770B504460068016937
:100C20000025C9438907002915DBC168C943890725
:100C300011D4E91E016101202077206880698007B6
:100C4000204602D0FFF7E7FF04E000F096F82046C8
:100C500000F094F8257720680169C943490717D443
:100C6000C168C943490713D40421C9430161022063
:100C70002077206880698005800F204602D0FFF72A
:100C8000CAFF04E000F079F8204600F077F82577F5
:100C900020680169C943090716D4C168C943090717
:100CA00012D40821C9430161042020772068C0695B
:100CB0008007204602D0FFF7AEFF04E000F05DF8A9
:100CC000204600F05BF8257720680169C943C90612
:100CD00017D4C168C943C90613D41021C94301619F
:100CE000082020772068C0698005800F204602D048
:100CF000FFF791FF04E000F040F8204600F03EF8D6
:100D0000257720680169C943C90708D1C168C9436B
:100D1000C90704D1891E0161204600F031F820681E
:100D20000169C943090609D4C168C943090605D444
:100D30008021C94301612046FFF77AFE20680169DE
:100D4000C943490609D4C168C943490605D44021AD
:100D5000C9430161204600F027F820680169C943B2
:100D6000890609D4C168C943890605D42021C9432D
:100D700001612046FFF75DFE70BD704770470000BF
:100D800010B5044600680649884201D1FFF7E0FA31
:100D900004492068884201D100F038FB10BD0000F2
:100DA000002C01400004004070477047F8B503680C
:100DB0000446D96918680D072D0F07D18A0605D595
:100DC000820603D5204600F036FCF8BD9A68002D57
:100DD00064D0D507ED0FFF26213606402E435DD0A7
:100DE000CE0706D0C60504D501261E62E36E334346
:100DF000E3668F0702230426002F06DAD70704D004
:100E000027683B62E76E3743E7664F0706D5D20790
:100E100004D022681662E26E1A43E2660A0709D518
:100E2000202202402A4305D0236808221A62E36E7A
:100E30001343E366E26E002AC7D0890604D5800614
:100E400002D5204600F0F7FBE06E000703D42068CF
:100E5000806840061CD5204600F0D1FB20688168E0
:100E6000490611D58168402291438160606E002857
:100E70000AD012494163606EFFF781F90028A4D0BF
:100E8000606E416B8847F8BD2046FFF78EFFF8BDC6
:100E90002046FFF78AFF0020E066F8BD0A0605D568
:100EA000020603D5204600F09BFCF8BD4906FCD5A0
:100EB0004006FAD5204600F0B1FBF8BDEB1500085E
:100EC00010B586B0044614216846FFF73AF9164972
:100ED0002068884225D11548C269012149040A4386
:100EE000C261C2690A40059242690A43426140698F
:100EF000084005900E2000900220019000200290F2
:100F0000032003900120049009206946C006FFF7E2
:100F100069F9002211461C20FFF796FA1C20FFF702
:100F200089FA06B010BD00000044004000100240E5
:100F3000FFB5074604466037B87A83B00E462028CE
:100F400064D1002E0CD00598002809D00120A1689A
:100F50000003814207D12069002804D1F00702D0A4
:100F6000012007B0F0BD387A01284FD00120387237
:100F70000020E0662220B872FFF7E4F902902546CF
:100F8000403505982883059868830122A1681203DB
:100F9000FF20914204D12169002907D11C4805E0B6
:100FA000002904D12169002900D07F20A883A88BC3
:100FB00001901CE0688B401E688306980090002218
:100FC00020212046029B00F03EFC002801D0032097
:100FD000C7E70120A1680003814202D120690028EF
:100FE0000DD02068818C019801403170761C688B8F
:100FF0000028DFD12020B87200203872B1E72068C5
:10100000808C019908403080B61CF0E70220A8E7E8
:10101000FF0100007047FFB5064604466036707A4F
:1010200083B00D46202858D1002D0CD005980028FB
:1010300009D00120A1680003814207D1206900285E
:1010400004D1E80702D0012007B0F0BD307A0128B2
:1010500043D0012030720020E06621207072FFF73B
:1010600071F90190274640370598388205987882B3
:1010700018E0788A401E788206980090002280212D
:101080002046019B00F0DFFB002818D10120A16859
:101090000003814202D12069002812D021682878FB
:1010A00008856D1C788A0028E3D1069800900022FC
:1010B00040212046019B00F0C6FB002808D00320F9
:1010C000C2E728882168C005C00D0885AD1CE9E786
:1010D0002020707200203072B6E70220B4E770471B
:1010E00010B5084C20680068800602D506480068E4
:1010F000804720680068000602D5044800688047E1
:1011000010BD0000180100204C00002050000020FD
:10111000FEE70000F0B587B014216846FFF711F82C
:1011200028484269012149040A43426142690A4050
:101130000592426949000A43426140690927084013
:10114000FF060590002250213846FFF7F4F81E4EA6
:10115000002231461D48FFF7EEF8502000240125FB
:10116000009002946946019503943846FFF73AF8D7
:10117000A0206A4631C269463846FFF733F8029428
:1011800069461248009601950394FFF72BF8104822
:101190006A4631C269460D48FFF724F80F20400225
:1011A00000900194694602943846FFF71BF8F0203E
:1011B00000900194694602940448FFF713F807B0C1
:1011C000F0BD0000001002400510000000040048BF
:1011D0000224000010B586B0002400941748019442
:1011E0000294039404941449059401604B2149012D
:1011F00084604160046164218461C160FFF73EFC4A
:10120000002801D0FEF7BAFF0120000300906946D4
:101210000A48FFF789FC002801D0FEF7AFFF0494CD
:1012200004A906480594FFF705FC002801D0FEF745
:10123000A5FF06B010BD000000040040D80000204B
:1012400010B50D480B4901604B21C90141600021D7
:101250008160C16001618161C1610C2201624261F2
:101260000B4641620A46FFF79BFB002801D0FEF7C0
:1012700085FF10BD004400401801002070470000A9
:101280008307FF22DB0E9A408907090E9940002848
:101290000BDA0007000F0838830808489B0018186D
:1012A000C36993430B43C3617047830804489B00A1
:1012B0001B181868904308431860704700ED00E061
:1012C00000E400E07047000070B51C4D8021284606
:1012D000FFF72CF8040140212846FFF727F84001CA
:1012E000044320212846FFF721F880010443102100
:1012F0002846FFF71BF8C001092504430121ED062C
:1013000009032846FFF712F804430121C9022846C1
:10131000FFF70CF840000443012189022846FFF73B
:1013200005F880000443012149022846FEF7FEFF2C
:10133000C0000443E043C0B270BD00000004004898
:10134000704730B591B030216846FEF7FAFE0024B0
:101350000D94012003900E9402251020099404900E
:10136000009505200F94C0040A900C9408950B94E6
:101370006846FFF76BF907200C900E9401210D953C
:101380000F940CA8FFF764F811B030BD1348016842
:101390000122114301604168114A11404160016816
:1013A000104A1140016001680122920491430160DA
:1013B00041683F22120491434160C16A0909090151
:1013C000C162016BFF22143291430163416B4908F2
:1013D0004900416300218160704700000010024015
:1013E0000CB8FF08FFFFF6FE10B50248FFF714FC2B
:1013F00010BD00008801002010B51020FFF710F884
:101400000148FFF709FC10BDD80000200148006822
:101410000047000054000020F0B502681A4B1B4C36
:10142000984201D0A04203D17025AA434D682A43B7
:10143000174D184E184F98420AD0A04208D0174CAA
:10144000A04205D0A84203D0B04201D0B84205D195
:101450001446032212029443CA6822438024A24302
:101460004C69224302608A68C2620A6882629842BA
:1014700005D0A84203D0B04201D0B84201D10969D9
:10148000016301214161F0BD002C014000040040D6
:10149000004001400044014000480140002000405D
:1014A00030B58468FF252D021B021343AC430B4368
:1014B0002343836030BD826870239A430A43072127
:1014C0000A438260704730B5036A046A64086400A6
:1014D00004628469F025AC43120122430A24A34329
:1014E0000B438261036230BD30B5036A1024A3430D
:1014F00003628469036A0F252D031203AC43224360
:10150000A024A343090119438261016230BD10B5D3
:10151000818CC90707D001684A6801235B049A439C
:10152000836A1A434A60818C890707D501684A6833
:1015300001231B049A43C36A1A434A60818C4907FA
:1015400007D501684A6801239B049A43036B1A4339
:101550004A60818C090707D501684A680123DB03CB
:101560009A43436B1A434A60818CC90607D50268C7
:10157000916801231B039943836B19439160818C0C
:10158000890607D501688A6801235B039A43C36B08
:101590001A438A60818C490612D503685A68012172
:1015A0000905046C8A4322435A60026C8A4207D1BF
:1015B0000268516803235B059943436C19435160EA
:1015C000818C090607D501684A680123DB04806C19
:1015D0009A4302434A6010BD0021C1662022603058
:1015E0004272827201720846704710B5406A00224A
:1015F000014640314A834A82FFF7D7FB10BD01689C
:101600000A68FF2321339A430A6001688A685208F6
:1016100052008A60202160308172704710B50168E5
:101620000A6840239A430A60202269210A54FFF77E
:1016300056FD002010BD70B50246403203466033AF
:10164000948B9D7A0168222D05D088690822104369
:101650008861022070BD898C012685683603B542F9
:1016600002D10569002D0BD02140446D651C4565F4
:101670002170518B491E0904090C518307D015E0D4
:10168000456D21402980416D891C4165F1E7016864
:101690000A68FF242134A2430A6001688A6852085C
:1016A00052008A6020219972FFF7B4FC002070BDBF
:1016B000F8B504462369A268E5691A4363691020F6
:1016C0002B43002125681A432B680E463E4F3B40B2
:1016D00013432B6023685A6803252D03AA43E5684A
:1016E0002A435A60236AA26925681A43AB680B270C
:1016F0003F02BB431343AB60344A2568954210D187
:10170000334A126B9207920F0ED0012A05D0022A9B
:1017100005D0032A09D1022007E0042005E00820B3
:1017200003E02C4A954200D100200122E369D20354
:10173000934224D100280CD002280DD0042813D0C5
:10174000082817D001260A0912010807400F104384
:101750002FE0FEF72FFF09E061681F4A4808801854
:10176000FEF7C0FC81B2EEE7FEF734FF616840008F
:101770004A08F4E76168012248081204EFE70028EC
:1017800008D0022809D004280BD0082814D001263C
:101790003046F8BDFEF70EFF05E061680F4A4808C5
:1017A0000CE0FEF717FF61684A088018FEF79AFC04
:1017B00080B22168C860EBE7616848088018FEF7CE
:1017C00091FC80B2E860E3E7F369FFFF0038014075
:1017D00000100240004400400024F40000127A008F
:1017E0006921095C212901D002207047024640325C
:1017F000518A002912D0012381681B03994202D12A
:101800000169002915D0C16C4B1CC36400680978BC
:101810000185508A401E50820020704701680A6886
:1018200080239A430A6000680168402211430160E6
:10183000F2E7C16C03680988C905C90D1985C16C37
:10184000891CC164E5E7FFB581B017460E46044622
:101850000A9D1DE0681C1BD0002D05D0FEF772FD0F
:101860000499401AA84213D920680168FF22A132C6
:101870009143016020688168490849008160202007
:1018800060346072A07200202072032005B0F0BDA9
:101890002068C1693046884304D00020B842D9D0BE
:1018A0000020F3E70120F9E710B5FFF719FC1C2031
:1018B000FEF7B6FD0148FFF779FA10BD18010020C8
:1018C00030B47446641E2578641CAB4200D21D46B9
:1018D000635D5B00E31830BC184702E008C8121FC4
:1018E00008C1002AFAD170477047002001E001C109
:1018F000121F002AFBD1704770B50925ED06202183
:101900002846FEF713FD044680212846FEF70EFD0B
:1019100040000C4D044302212846FEF707FD8000DD
:101920000443012189022846FEF700FDC00004435C
:10193000012149032846FEF7F9FC0001044302484F
:10194000448070BD000400481600002070B5234C90
:101950002288002A26D009250121ED062048090306
:101960001300FFF7ADFF071D0510202B36381D00B3
:10197000012210212846FEF7DEFCC820FEF723FCDA
:101980000022102109E0012240212846FEF7D3FC65
:10199000C820FEF718FC002240212846FEF7CBFCA9
:1019A0000020208070BD012211460546FEF7C3FCD1
:1019B000C820FEF708FC00220121EEE701220421E5
:1019C0000546FEF7B8FCC820FEF7FDFB0022042107
:1019D000E3E70122E2E70022E0E700001600002032
:1019E0000004004870B5064D00242878012802D074
:1019F0000624204670BD2869804700202870F8E73B
:101A00002C00002070B50C460988002505292ED130
:101A10004178184E0A0281781143C278491C13029A
:101A2000027989B21A43531EB34220D20023238085
:101A30000123037023885B1C2380401C530702D0C2
:101A4000D3085B1C00E0D308DEB206702388401C7C
:101A50005B1C2380002300F0E5FA002803D000F08F
:101A600067FB054604E020888019208000E00325FC
:101A7000284670BDCF07000070B50C4609880025C8
:101A800005292DD14178184E0A0281781143C27878
:101A9000491C1302027989B21A43531EB3421FD262
:101AA000002323800223037023885B1C2380401CB7
:101AB000530702D0D3085B1C00E0D308DEB20670E7
:101AC0002388401C5B1C238000F0AEFA002803D062
:101AD00000F02EFB054604E020888019208000E0FD
:101AE0000325284670BD0000CF07000070B50C46E6
:101AF00009880025052923D141780A0281781143FC
:101B00000279491C531E89B27C2B19D800232380EB
:101B100003230370238856005B1C238046702388B0
:101B2000801C5B1C2380002300F080FA002803D077
:101B300000F0FEFA054604E020888019208000E0CD
:101B40000325284670BD70B50C4609880025052977
:101B500025D141780A0281781143C278491C1302C9
:101B6000027989B21A43531E7C2B18D2002323809A
:101B700004230370238856005B1C2380467023884F
:101B8000801C5B1C238000F083FA002803D000F047
:101B9000CFFA054604E020888019208000E0032564
:101BA000284670BDF8B50446088800270D460A2867
:101BB00044D360780102A0780843401C80B20090B2
:101BC000E0782679000206436079227A0102A07942
:101BD000731E0843401C81B2E07900020243607A20
:101BE0007C2B2AD8002A28D0792A26D85300834271
:101BF00023D1204601230A3000F018FA002814D11E
:101C000000212980172121702988601C491C298006
:101C10007400047029880023491C29803246401C26
:101C2000009900F003FA002803D000F081FA07467B
:101C300004E028880019288000E003273846F8BD12
:101C400070B5064C0D4622880549401CFEF760FA27
:101C50002088401C2880002070BD00001C0000204F
:101C6000C801002038B50988002405290DD1417824
:101C70000A0281781143491C027989B2002A04D1F1
:101C8000C278FF2A04D0002A02D00324204638BD9F
:101C900000226B465A70C078FF280BD01A700123BF
:101CA0001A46684600F0BEF90028EFD000F040FA6E
:101CB0000446EBE701201870F1E710B5098800240D
:101CC000052902D00324204610BD417801230A02D1
:101CD0008178C01C1143491C89B21A4600F0A6F94C
:101CE0000028F0D000F024FA0446ECE7F8B50D46E1
:101CF00009880024052926D9417846790A02817885
:101D00001143491C89B28C46C178027909020A4301
:101D1000510702D0D108491C00E0D1080B4F531ED7
:101D2000C9B2BB420FD8B1420DD101236146801D1B
:101D300000F078F9002803D000F0FAF9044603E037
:101D40000520288000E003242046F8BDAF070000EE
:101D500070B50D460988002406291ED341780A0271
:101D600081781143C278491C1302027989B21A435F
:101D70004379561E772E10D85606360E9E420CD149
:101D80000123801D00F052F9002803D000F0D0F9A3
:101D9000044603E00520288000E00324204670BDAF
:101DA000F8B51E46069B17460546002906D0F729BA
:101DB00004D8144C08462171002D01D002261CE0E5
:101DC00011492161114961611149E1601149A16124
:101DD0000021E16110492162104961621049A1624C
:101DE0003246394600F07CF8060006D100F008FAC9
:101DF000002804D06571012020703046F8BD03260C
:101E0000FBE700002C000020E51F00080920000867
:101E1000811F0008291F00087122000821230008E3
:101E2000DD22000838B52D4C2078002801D006208E
:101E300038BD684600F0D6F901284DD168460078D3
:101E4000002849D0012802D0022845D111E0234AB8
:101E5000A369921D911CC81F984700283CD1607847
:101E60002179884201D0002836D1022000F0D0F933
:101E700032E0A06801210278A270E170174B0021C6
:101E80002C33CD005D5D002D0CD0954207D1C900EB
:101E9000C9184A681149891D9047E07002E0491C41
:101EA0001029EEDB6078002816D0E07800280ED0EC
:101EB0000021E180A17880221143A2681170E1889D
:101EC000491C89B2E1805054E088401CE080E368FE
:101ED000E2882079A1689847002038BD2C000020B6
:101EE00070B5084600241546012181F310880822A8
:101EF000294600F0A5F901280ED14B2000028542A9
:101F000001D9232003E069000648FEF7EBF880B210
:101F100000F0A8F9012800D00324002080F31088E5
:101F2000204670BDA07F1700F7B50746002516466E
:101F3000012080F31088104CA088FF2801D9C046EA
:101F4000C046A088042805D3A1880C4800F0FCF8FE
:101F5000002805D00525002080F310882846FEBD06
:101F6000064800783870A088C01E30800348019968
:101F7000401C0860EFE7000020000020E80100207E
:101F800070B503460025012080F31088134C60785B
:101F9000012805D00525002080F31088284670BD53
:101FA000491E0126A160084666800B706188891869
:101FB0006180618800F0C8F86188094A5318491C9B
:101FC00061801870010A60881218401C60801170CE
:101FD00026700121002000F0CFF8DCE7200000206F
:101FE000E801002010B5012080F310880548002486
:101FF00044702146012000F0BFF800F0E3F884F3BC
:10200000108810BD2000002010B5012080F310883A
:102010000021084600F0B0F800F0C6F8002080F378
:10202000108810BD0120704701207047F0B50025D1
:10203000002927D08C18042C24D8144C64880C1B3D
:1020400012490831002B0CD0012B1CD117E0630082
:10205000CE5A521E360A0670CB5C4370801C92B278
:10206000641C002AF3D10EE0037866001B028B5338
:102070004778521E1F43801C8F5392B2641C002A63
:10208000F2D100E001252846F0BD00000E0000203E
:1020900070B50023002915D08C18032C12D80B4CD6
:1020A0002488091B094C241D09E04D00665B521E63
:1020B000360A0670655D4570801C92B2491C002A84
:1020C000F3D100E00123184670BD00000E0000208F
:1020D00008B5FEF745F9FFF734F9FFF71BF8FFF7EE
:1020E00079F8FFF7ADF8FFF7EFF80F4C20707D207F
:1020F000C000FEF768F8012211030C48FEF71BF937
:10210000217800290FD000204B23DB01032200900F
:10211000FFF746FEFFF766FCFFF784FEFFF716FCAD
:10212000FFF7EAFBF8E7FEE70000002000040048A4
:10213000002804D0012803D0072803D004207047CA
:10214000022070470620704770B50A4DFF23EE1D30
:102150001A46F93605E0047854402A5D5A40335D4A
:10216000401C0C46491E89B2002CF4D118021043C1
:1021700070BD00009823000810B50A4A2024136897
:102180000028186801D0204300E0A0431860802098
:10219000002911680A6801D0024300E082430A6006
:1021A00010BD00001801002010B50548FEF7A6FC80
:1021B00003480021026851620068891E016110BD58
:1021C000D800002010B5064801210268C9431161FA
:1021D0000068002141620248FEF784FC10BD000047
:1021E000D8000020054902464B780020002B04D07F
:1021F0000878107000204870012070470C00002003
:102200000249002048700120704700000C000020A7
:10221000024901224A700870104670470C000020E5
:1022200010B501460A2301220448FEF781FE00286A
:1022300001D0002010BD012010BD000018010020B9
:102240000120704701B50A23012269460448FEF7C0
:10225000E2FE002801D0002008BD012008BD0000DA
:102260001801002010B5FEF7B5FF012010BD0000D9
:1022700038B5184C00252078002801D0C046C0464B
:102280006846FFF7CDFF6078002806D01249012884
:1022900007D0022810D0032801D1FFF793FF28466A
:1022A00038BD0020A08068460278A0880918401C2C
:1022B000A0800A7002200BE0A088FF2807D868469B
:1022C0000278A0880918401CA0800A70E5E7032066
:1022D0006070E2E720000020E801002070B50F4D9B
:1022E0000024687800280FD002280CD003280ED0D4
:1022F000687800280BD06878022808D0687803280E
:1023000005D0C046C0460120FFF782FF0446FFF714
:102310004BFF01206870204670BD000020000020A7
:1023200070B5164C00256078012801D0C046C04623
:102330002078002802D001281DD104E000210120CE
:10234000FFF71AFF17E0608800280AD0A06800781D
:10235000FFF778FFA068401CA0606088401E608086
:1023600009E00320FFF754FF054600210120FFF795
:1023700003FF00202070284670BD000020000020D0
:102380000000000000000000010203040607080925
:10239000000000000102030400C1814001C080412F
:1023A00001C0804100C1814001C0804100C1814025
:1023B00000C1814001C0804101C0804100C1814015
:1023C00000C1814001C0804100C1814001C0804105
:1023D00001C0804100C1814001C0804100C18140F5
:1023E00000C1814001C0804100C1814001C08041E5
:1023F00001C0804100C1814000C1814001C08041D5
:1024000001C0804100C1814001C0804100C18140C4
:1024100000C1814001C0804101C0804100C18140B4
:1024200000C1814001C0804100C1814001C08041A4
:1024300001C0804100C1814000C1814001C0804194
:1024400001C0804100C1814001C0804100C1814084
:1024500000C1814001C0804100C1814001C0804174
:1024600001C0804100C1814001C0804100C1814064
:1024700000C1814001C0804101C0804100C1814054
:1024800000C1814001C0804100C1814001C0804144
:1024900001C0804100C1814000C0C101C30302C22C
:1024A000C60607C705C5C404CC0C0DCD0FCFCE0E94
:1024B0000ACACB0BC90908C8D81819D91BDBDA1A04
:1024C0001EDEDF1FDD1D1CDC14D4D515D71716D674
:1024D000D21213D311D1D010F03031F133F3F232E4
:1024E00036F6F737F53534F43CFCFD3DFF3F3EFE54
:1024F000FA3A3BFB39F9F83828E8E929EB2B2AEAC4
:10250000EE2E2FEF2DEDEC2CE42425E527E7E62633
:1025100022E2E323E12120E0A06061A163A3A262A3
:1025200066A6A767A56564A46CACAD6DAF6F6EAE13
:10253000AA6A6BAB69A9A86878B8B979BB7B7ABA83
:10254000BE7E7FBF7DBDBC7CB47475B577B7B676F3
:1025500072B2B373B17170B0509091519353529263
:1025600096565797559594549C5C5D9D5F9F9E5ED3
:102570005A9A9B5B99595898884849894B8B8A4A43
:102580004E8E8F4F8D4D4C8C4484854587474686B3
:102590008242438341818040B8250008000000202A
:1025A000D8000000DA18000890260008D8000020A3
:1025B00010060000EA1800080000000000000000FB
:1025C00000127A000000010001000000000000007D
:1025D00000000000000000000000000000000000FB
:1025E00000000000020000000000000000000000E9
:1025F00000000000000000000000000000000000DB
:1026000000000000000000000000000000000000CA
:1026100011000000411C000804000000471B0008D6
:1026200003000000ED1A000810000000511D000812
:1026300006000000BB1C000817000000A51B0008D6
:1026400001000000051A000805000000651C0008D4
:102650000F000000ED1C000802000000791A0008BD
:10266000000000000000000000000000000000006A
:10267000000000000000000000000000000000005A
:10268000000000000000000000000000000000004A
:04000005080000B53A
:00000001FF
